{
  "contractName": "Marketplace",
  "abi": [
    {
      "constant": true,
      "inputs": [],
      "name": "name",
      "outputs": [
        {
          "name": "",
          "type": "string"
        }
      ],
      "payable": false,
      "stateMutability": "view",
      "type": "function",
      "signature": "0x06fdde03"
    },
    {
      "constant": true,
      "inputs": [
        {
          "name": "",
          "type": "uint256"
        }
      ],
      "name": "products",
      "outputs": [
        {
          "name": "id",
          "type": "uint256"
        },
        {
          "name": "name",
          "type": "string"
        },
        {
          "name": "price",
          "type": "uint256"
        },
        {
          "name": "owner",
          "type": "address"
        },
        {
          "name": "purchased",
          "type": "bool"
        }
      ],
      "payable": false,
      "stateMutability": "view",
      "type": "function",
      "signature": "0x7acc0b20"
    },
    {
      "constant": true,
      "inputs": [],
      "name": "productCount",
      "outputs": [
        {
          "name": "",
          "type": "uint256"
        }
      ],
      "payable": false,
      "stateMutability": "view",
      "type": "function",
      "signature": "0xe0f6ef87"
    },
    {
      "inputs": [],
      "payable": false,
      "stateMutability": "nonpayable",
      "type": "constructor",
      "signature": "constructor"
    },
    {
      "anonymous": false,
      "inputs": [
        {
          "indexed": false,
          "name": "id",
          "type": "uint256"
        },
        {
          "indexed": false,
          "name": "name",
          "type": "string"
        },
        {
          "indexed": false,
          "name": "price",
          "type": "uint256"
        },
        {
          "indexed": false,
          "name": "owner",
          "type": "address"
        },
        {
          "indexed": false,
          "name": "purchased",
          "type": "bool"
        }
      ],
      "name": "ProductCreated",
      "type": "event",
      "signature": "0xbc59c0c8165864dcceb377dd07d8f431d4303f8e501cb0a0374a10cc68d71836"
    },
    {
      "anonymous": false,
      "inputs": [
        {
          "indexed": false,
          "name": "id",
          "type": "uint256"
        },
        {
          "indexed": false,
          "name": "name",
          "type": "string"
        },
        {
          "indexed": false,
          "name": "price",
          "type": "uint256"
        },
        {
          "indexed": false,
          "name": "owner",
          "type": "address"
        },
        {
          "indexed": false,
          "name": "purchased",
          "type": "bool"
        }
      ],
      "name": "ProductPurchsed",
      "type": "event",
      "signature": "0x3723b9c72542ea95a3a591aa74a7341ed7eb56e2d38e5903c8833595a94308af"
    },
    {
      "constant": false,
      "inputs": [
        {
          "name": "_name",
          "type": "string"
        },
        {
          "name": "_price",
          "type": "uint256"
        }
      ],
      "name": "createProduct",
      "outputs": [],
      "payable": false,
      "stateMutability": "nonpayable",
      "type": "function",
      "signature": "0xe9300c6c"
    },
    {
      "constant": false,
      "inputs": [
        {
          "name": "_id",
          "type": "uint256"
        }
      ],
      "name": "purchaseProduct",
      "outputs": [],
      "payable": true,
      "stateMutability": "payable",
      "type": "function",
      "signature": "0x38e76a03"
    }
  ],
  "bytecode": "0x6080604052600060015534801561001557600080fd5b506040805190810160405280601081526020017f54657374204d61726b6574706c6163650000000000000000000000000000000081525060009080519060200190610061929190610067565b5061010c565b828054600181600116156101000203166002900490600052602060002090601f016020900481019282601f106100a857805160ff19168380011785556100d6565b828001600101855582156100d6579182015b828111156100d55782518255916020019190600101906100ba565b5b5090506100e391906100e7565b5090565b61010991905b808211156101055760008160009055506001016100ed565b5090565b90565b610c178061011b6000396000f3fe60806040526004361061006d576000357c0100000000000000000000000000000000000000000000000000000000900463ffffffff16806306fdde031461007257806338e76a03146101025780637acc0b2014610130578063e0f6ef8714610230578063e9300c6c1461025b575b600080fd5b34801561007e57600080fd5b5061008761032d565b6040518080602001828103825283818151815260200191508051906020019080838360005b838110156100c75780820151818401526020810190506100ac565b50505050905090810190601f1680156100f45780820380516001836020036101000a031916815260200191505b509250505060405180910390f35b61012e6004803603602081101561011857600080fd5b81019080803590602001909291905050506103cb565b005b34801561013c57600080fd5b506101696004803603602081101561015357600080fd5b81019080803590602001909291905050506107e8565b60405180868152602001806020018581526020018473ffffffffffffffffffffffffffffffffffffffff1673ffffffffffffffffffffffffffffffffffffffff16815260200183151515158152602001828103825286818151815260200191508051906020019080838360005b838110156101f15780820151818401526020810190506101d6565b50505050905090810190601f16801561021e5780820380516001836020036101000a031916815260200191505b50965050505050505060405180910390f35b34801561023c57600080fd5b506102456108e3565b6040518082815260200191505060405180910390f35b34801561026757600080fd5b5061032b6004803603604081101561027e57600080fd5b810190808035906020019064010000000081111561029b57600080fd5b8201836020820111156102ad57600080fd5b803590602001918460018302840111640100000000831117156102cf57600080fd5b91908080601f016020809104026020016040519081016040528093929190818152602001838380828437600081840152601f19601f820116905080830192505050505050509192919290803590602001909291905050506108e9565b005b60008054600181600116156101000203166002900480601f0160208091040260200160405190810160405280929190818152602001828054600181600116156101000203166002900480156103c35780601f10610398576101008083540402835291602001916103c3565b820191906000526020600020905b8154815290600101906020018083116103a657829003601f168201915b505050505081565b6103d3610afe565b6002600083815260200190815260200160002060a0604051908101604052908160008201548152602001600182018054600181600116156101000203166002900480601f0160208091040260200160405190810160405280929190818152602001828054600181600116156101000203166002900480156104955780601f1061046a57610100808354040283529160200191610495565b820191906000526020600020905b81548152906001019060200180831161047857829003601f168201915b50505050508152602001600282015481526020016003820160009054906101000a900473ffffffffffffffffffffffffffffffffffffffff1673ffffffffffffffffffffffffffffffffffffffff1673ffffffffffffffffffffffffffffffffffffffff1681526020016003820160149054906101000a900460ff16151515158152505090506000816060015190506000826000015111801561053e5750600154826000015111155b151561054957600080fd5b8160400151341015151561055c57600080fd5b600015158260800151151514151561057357600080fd5b816060015173ffffffffffffffffffffffffffffffffffffffff163373ffffffffffffffffffffffffffffffffffffffff16141515156105b257600080fd5b33826060019073ffffffffffffffffffffffffffffffffffffffff16908173ffffffffffffffffffffffffffffffffffffffff168152505060018260800190151590811515815250508160026000858152602001908152602001600020600082015181600001556020820151816001019080519060200190610635929190610b46565b506040820151816002015560608201518160030160006101000a81548173ffffffffffffffffffffffffffffffffffffffff021916908373ffffffffffffffffffffffffffffffffffffffff16021790555060808201518160030160146101000a81548160ff0219169083151502179055509050508073ffffffffffffffffffffffffffffffffffffffff166108fc349081150290604051600060405180830381858888f193505050501580156106f0573d6000803e3d6000fd5b507f3723b9c72542ea95a3a591aa74a7341ed7eb56e2d38e5903c8833595a94308af600183602001513433600160405180868152602001806020018581526020018473ffffffffffffffffffffffffffffffffffffffff1673ffffffffffffffffffffffffffffffffffffffff16815260200183151515158152602001828103825286818151815260200191508051906020019080838360005b838110156107a557808201518184015260208101905061078a565b50505050905090810190601f1680156107d25780820380516001836020036101000a031916815260200191505b50965050505050505060405180910390a1505050565b6002602052806000526040600020600091509050806000015490806001018054600181600116156101000203166002900480601f01602080910402602001604051908101604052809291908181526020018280546001816001161561010002031660029004801561089a5780601f1061086f5761010080835404028352916020019161089a565b820191906000526020600020905b81548152906001019060200180831161087d57829003601f168201915b5050505050908060020154908060030160009054906101000a900473ffffffffffffffffffffffffffffffffffffffff16908060030160149054906101000a900460ff16905085565b60015481565b600382511115156108f957600080fd5b60008111151561090857600080fd5b60016000815480929190600101919050555060a060405190810160405280600181526020018381526020018281526020013373ffffffffffffffffffffffffffffffffffffffff16815260200160001515815250600260006001548152602001908152602001600020600082015181600001556020820151816001019080519060200190610997929190610b46565b506040820151816002015560608201518160030160006101000a81548173ffffffffffffffffffffffffffffffffffffffff021916908373ffffffffffffffffffffffffffffffffffffffff16021790555060808201518160030160146101000a81548160ff0219169083151502179055509050507fbc59c0c8165864dcceb377dd07d8f431d4303f8e501cb0a0374a10cc68d718366001838333600060405180868152602001806020018581526020018473ffffffffffffffffffffffffffffffffffffffff1673ffffffffffffffffffffffffffffffffffffffff16815260200183151515158152602001828103825286818151815260200191508051906020019080838360005b83811015610abc578082015181840152602081019050610aa1565b50505050905090810190601f168015610ae95780820380516001836020036101000a031916815260200191505b50965050505050505060405180910390a15050565b60a060405190810160405280600081526020016060815260200160008152602001600073ffffffffffffffffffffffffffffffffffffffff1681526020016000151581525090565b828054600181600116156101000203166002900490600052602060002090601f016020900481019282601f10610b8757805160ff1916838001178555610bb5565b82800160010185558215610bb5579182015b82811115610bb4578251825591602001919060010190610b99565b5b509050610bc29190610bc6565b5090565b610be891905b80821115610be4576000816000905550600101610bcc565b5090565b9056fea165627a7a72305820ef9bd3f9519b1cf2ac2f526664b167121b5330933f3c79917f31e352d0f16b5b0029",
  "source": "pragma solidity ^0.5.0;\r\n\r\ncontract Marketplace {\r\n    string public name;\r\n    uint public productCount = 0;\r\n    mapping (uint => Product) public products;\r\n\r\n    struct Product {\r\n        uint id;\r\n        string name;\r\n        uint price;\r\n        address payable owner;\r\n        bool purchased;\r\n    }\r\n    event ProductCreated (\r\n        uint id,\r\n        string name,\r\n        uint price,\r\n        address payable owner,\r\n        bool purchased\r\n    );\r\n    event ProductPurchsed (\r\n        uint id,\r\n        string name,\r\n        uint price,\r\n        address payable owner,\r\n        bool purchased\r\n    );\r\n\r\n    constructor() public {\r\n        name = \"Test Marketplace\";\r\n    }\r\n\r\n    function createProduct(string memory _name, uint _price) public {\r\n        // make sure product params are correct\r\n        require(bytes(_name).length > 3);\r\n        require(_price > 0);\r\n        // increment productCount\r\n        productCount++;\r\n        // create the product\r\n        products[productCount] = Product(1, _name, _price, msg.sender, false);\r\n        // trigger an event\r\n        emit ProductCreated(1, _name, _price, msg.sender, false);\r\n    }\r\n\r\n    function purchaseProduct(uint _id) public payable {\r\n        // fetch the product\r\n        Product memory _product = products[_id];\r\n        // fetch the owner\r\n        address payable _seller = _product.owner;\r\n        // make sure product valid\r\n        require(_product.id > 0 && _product.id <= productCount);\r\n        // make sure buyer paid eanogh to buy our stuff\r\n        require(msg.value >= _product.price);\r\n        // product was not bought previously\r\n        require(_product.purchased == false);\r\n        require(msg.sender != _product.owner);\r\n        \r\n        // transfer ownership to the buyer\r\n        _product.owner = msg.sender;\r\n        // set purchased\r\n        _product.purchased = true;\r\n        products[_id] = _product;\r\n        // pay the seller\r\n        address(_seller).transfer(msg.value);\r\n        // trigger an event\r\n        emit ProductPurchsed(1, _product.name, msg.value, msg.sender, true);\r\n    }\r\n}\r\n",
  "sourcePath": "C:/src/marketplace/src/contracts/Marketplace.sol",
  "compiler": {
    "name": "solc",
    "version": "0.5.0+commit.1d4f565a.Emscripten.clang"
  },
  "schemaVersion": "3.0.2",
  "updatedAt": "2019-10-09T14:09:31.613Z",
  "devdoc": {
    "methods": {}
  },
  "userdoc": {
    "methods": {}
  }
}